:020000040000fa
:080000000002040000000000f2
:020000040000fa
:040008001c030000d5
:020000040000fa
:04000c001c030000d1
:020000040000fa
:040010001c030000cd
:020000040000fa
:040014001c030000c9
:020000040000fa
:040018001c030000c5
:020000040000fa
:04001c001c030000c1
:020000040000fa
:040020001c030000bd
:020000040000fa
:040024001c030000b9
:020000040000fa
:04002800fa020000d8
:020000040000fa
:04002c001c030000b1
:020000040000fa
:040030001c030000ad
:020000040000fa
:040034001c030000a9
:020000040000fa
:040038001c030000a5
:020000040000fa
:04003c001c030000a1
:020000040000fa
:040040001c0300009d
:020000040000fa
:040044001c03000099
:020000040000fa
:040048001c03000095
:020000040000fa
:04004c001c03000091
:020000040000fa
:040050001c0300008d
:020000040000fa
:040054001c03000089
:020000040000fa
:040058001c03000085
:020000040000fa
:04005c001c03000081
:020000040000fa
:040060001c0300007d
:020000040000fa
:040064001c03000079
:020000040000fa
:040068001c03000075
:020000040000fa
:04006c001c03000071
:020000040000fa
:040070001c0300006d
:020000040000fa
:040074001c03000069
:020000040000fa
:040078001c03000065
:020000040000fa
:04007c001c03000061
:020000040000fa
:040080001c0300005d
:020000040000fa
:040084001c03000059
:020000040000fa
:040088001c03000055
:020000040000fa
:04008c001c03000051
:020000040000fa
:040090001c0300004d
:020000040000fa
:040094001c03000049
:020000040000fa
:040098001c03000045
:020000040000fa
:04009c001c03000041
:020000040000fa
:0400a0001c0300003d
:020000040000fa
:0400a4001c03000039
:020000040000fa
:0400a8001c03000035
:020000040000fa
:0400ac001c03000031
:020000040000fa
:0400b0001c0300002d
:020000040000fa
:0400b4001c03000029
:020000040000fa
:0400b8001c03000025
:020000040000fa
:0400bc001c03000021
:020000040000fa
:0400c0001c0300001d
:020000040000fa
:0400c4001c03000019
:020000040000fa
:0400c8001c03000015
:020000040000fa
:0400cc001c03000011
:020000040000fa
:0400d0001c0300000d
:020000040000fa
:0400d4001c03000009
:020000040000fa
:0400d8001c03000005
:020000040000fa
:0400dc001c03000001
:020000040000fa
:0400e0001c030000fd
:020000040000fa
:0400e4001c030000f9
:020000040000fa
:0400e8001c030000f5
:020000040000fa
:0400ec001c030000f1
:020000040000fa
:0400f0001c030000ed
:020000040000fa
:0400f4001c030000e9
:020000040000fa
:0400f8001c030000e5
:020000040000fa
:0400fc001c030000e1
:020000040000fa
:040100001c030000dc
:020000040000fa
:040104001c030000d8
:020000040000fa
:040108001c030000d4
:020000040000fa
:04010c001c030000d0
:020000040000fa
:040110001c030000cc
:020000040000fa
:040114001c030000c8
:020000040000fa
:040118001c030000c4
:020000040000fa
:04011c001c030000c0
:020000040000fa
:040120001c030000bc
:020000040000fa
:040124001c030000b8
:020000040000fa
:040128001c030000b4
:020000040000fa
:04012c001c030000b0
:020000040000fa
:040130001c030000ac
:020000040000fa
:040134001c030000a8
:020000040000fa
:040138001c030000a4
:020000040000fa
:04013c001c030000a0
:020000040000fa
:040140001c0300009c
:020000040000fa
:040144001c03000098
:020000040000fa
:040148001c03000094
:020000040000fa
:04014c001c03000090
:020000040000fa
:040150001c0300008c
:020000040000fa
:040154001c03000088
:020000040000fa
:040158001c03000084
:020000040000fa
:04015c001c03000080
:020000040000fa
:040160001c0300007c
:020000040000fa
:040164001c03000078
:020000040000fa
:040168001c03000074
:020000040000fa
:04016c001c03000070
:020000040000fa
:040170001c0300006c
:020000040000fa
:040174001c03000068
:020000040000fa
:040178001c03000064
:020000040000fa
:04017c001c03000060
:020000040000fa
:040180001c0300005c
:020000040000fa
:040184001c03000058
:020000040000fa
:040188001c03000054
:020000040000fa
:04018c001c03000050
:020000040000fa
:040190001c0300004c
:020000040000fa
:040194001c03000048
:020000040000fa
:040198001c03000044
:020000040000fa
:04019c001c03000040
:020000040000fa
:0401a0001c0300003c
:020000040000fa
:0401a4001c03000038
:020000040000fa
:0401a8001c03000034
:020000040000fa
:0401ac001c03000030
:020000040000fa
:0401b0001c0300002c
:020000040000fa
:0401b4001c03000028
:020000040000fa
:0401b8001c03000024
:020000040000fa
:0401bc001c03000020
:020000040000fa
:0401c0001c0300001c
:020000040000fa
:0401c4001c03000018
:020000040000fa
:0401c8001c03000014
:020000040000fa
:0401cc001c03000010
:020000040000fa
:0401d0001c0300000c
:020000040000fa
:0401d4001c03000008
:020000040000fa
:0401d8001c03000004
:020000040000fa
:0401dc001c03000000
:020000040000fa
:0401e0001c030000fc
:020000040000fa
:0401e4001c030000f8
:020000040000fa
:0401e8001c030000f4
:020000040000fa
:0401ec001c030000f0
:020000040000fa
:0401f0001c030000ec
:020000040000fa
:0401f4001c030000e8
:020000040000fa
:0401f8001c030000e4
:020000040000fa
:0401fc001c030000e0
:020000040000fa
:040200001c030000db
:020000040000fa
:040204001c030000d7
:020000040000fa
:040208001c030000d3
:020000040000fa
:04020c001c030000cf
:020000040000fa
:040210001c030000cb
:020000040000fa
:040214001c030000c7
:020000040000fa
:040218001c030000c3
:020000040000fa
:04021c001c030000bf
:020000040000fa
:040220001c030000bb
:020000040000fa
:040224001c030000b7
:020000040000fa
:040228001c030000b3
:020000040000fa
:04022c001c030000af
:020000040000fa
:040230001c030000ab
:020000040000fa
:040234001c030000a7
:020000040000fa
:040238001c030000a3
:020000040000fa
:04023c001c0300009f
:020000040000fa
:040240001c0300009b
:020000040000fa
:040244001c03000097
:020000040000fa
:040248001c03000093
:020000040000fa
:04024c001c0300008f
:020000040000fa
:040250001c0300008b
:020000040000fa
:040254001c03000087
:020000040000fa
:040258001c03000083
:020000040000fa
:04025c001c0300007f
:020000040000fa
:040260001c0300007b
:020000040000fa
:040264001c03000077
:020000040000fa
:040268001c03000073
:020000040000fa
:04026c001c0300006f
:020000040000fa
:040270001c0300006b
:020000040000fa
:040274001c03000067
:020000040000fa
:040278001c03000063
:020000040000fa
:04027c001c0300005f
:020000040000fa
:040280001c0300005b
:020000040000fa
:040284001c03000057
:020000040000fa
:040288001c03000053
:020000040000fa
:04028c001c0300004f
:020000040000fa
:040290001c0300004b
:020000040000fa
:040294001c03000047
:020000040000fa
:040298001c03000043
:020000040000fa
:04029c001c0300003f
:020000040000fa
:0402a0001c0300003b
:020000040000fa
:0402a4001c03000037
:020000040000fa
:0402a8001c03000033
:020000040000fa
:0402ac001c0300002f
:020000040000fa
:0402b0001c0300002b
:020000040000fa
:0402b4001c03000027
:020000040000fa
:0402b8001c03000023
:020000040000fa
:0402bc001c0300001f
:020000040000fa
:0402c0001c0300001b
:020000040000fa
:0402c4001c03000017
:020000040000fa
:0402c8001c03000013
:020000040000fa
:0402cc001c0300000f
:020000040000fa
:0402d0001c0300000b
:020000040000fa
:0402d4001c03000007
:020000040000fa
:0402d8001c03000003
:020000040000fa
:0402dc001c030000ff
:020000040000fa
:0402e0001c030000fb
:020000040000fa
:0402e4001c030000f7
:020000040000fa
:0402e8001c030000f3
:020000040000fa
:0402ec001c030000ef
:020000040000fa
:0402f0001c030000eb
:020000040000fa
:0402f4001c030000e7
:020000040000fa
:0402f8001c030000e3
:020000040000fa
:0402fc001c030000df
:020000040000fa
:040300001c030000da
:020000040000fa
:040304001c030000d6
:020000040000fa
:040308001c030000d2
:020000040000fa
:04030c001c030000ce
:020000040000fa
:040310001c030000ca
:020000040000fa
:040314001c030000c6
:020000040000fa
:040318001c030000c2
:020000040000fa
:04031c001c030000be
:020000040000fa
:040320001c030000ba
:020000040000fa
:040324001c030000b6
:020000040000fa
:100400000f0021000eff22000e01880000000000f6
:10041000000020000000e000020032000001200087
:100420002002880014000700850007000000e0009b
:1004300003003a0000002000010020000200370005
:100440000000200001002000810f70000100320038
:100450000f000700000020000000e0000200320052
:100460000000020000000000220302000000000063
:100470000040da000000fe00200020000000e00044
:1004800002003200100020009001880000000600e9
:10049000a1028800800478000000eb001f003700f4
:1004a000e284440054a0b4009905ba00e2844400f8
:1004b00054a0b4009906ba00e284440054a0b400e9
:1004c0000006eb00476fde00fd07b200ae018800ba
:1004d000636ce10003003a000ad801000000eb0061
:1004e0000e003700606ce10008003a00004deb00a0
:1004f0000a05e800020039003420ec000af0a000f0
:100500008b05e900f9ff3e00040037006168e10057
:10051000010032000086eb000b00070019c7ba008b
:100520001905ba000e04e00003003a000a00e000da
:10053000dbff3a0000000600fe07b200ae028800b2
:100540008a047800f5ff37000cd0a300e20f4d00bd
:100550001c00390089027800354dba000a05e80010
:10056000020039003420ec000af0a0008b05e900fd
:100570000f003200254dba000a05e80002003900dc
:100580003420ec000af0a0008b05e90008003200de
:100590000c00e0000600320015cdba000a05e800a4
:1005a000020039003420ec000af0a0008b05e900bd
:1005b0008984e80054a0b4000b00e000e2ff3a0098
:1005c000000006009902ba00055d78008b05e9007d
:1005d000f7ff3200c82ade00055d78008b05e900d0
:1005e000f3ff32000c00e000f1ff320019ddba0029
:1005f000eeff3700809fbe000000fa00f07180001f
:1006000000800a00000000000004a20061406000b9
:100610000080fb0061006000f17180000100a1001a
:1006200001007000f07188000008a9000080fa0045
:100630004f00be00004006000040da000000fe004f
:0406400000000500b1
:020000040000fa
:100644000000fa00317c800000fc2f000080600074
:100654000000a000307c880081022000b0210a0044
:10066400880f0000517c8000f0f82f0000806000ab
:100674000040a000507c8800517c800080ff2f0047
:10068400008060000000a000507c88003200200040
:1006940080072000a109200053f820008049780039
:1006a4008149780082497800207c8000000178002c
:1006b4000200a000600420007105200043f820001f
:1006c4008049780081497800824978000000000060
:1006d400207c8000610060000000e000fcff3a0024
:1006e40000000000217c80000002200000806000e7
:1006f4000000e000fbff3200380ea9003a0ea9000a
:100704001c4ea9001e4ea800c208a900c1e8a800fa
:100714000142800080ff2f00008060006000b30071
:10072400004288000008a9002008a800c3e8a80027
:04073400ffff37008c
:020000040000fa
:020000040001f9
:045e0000ffffff00a1
:020000040000fa
:020000040001f9
:045e2000ffffff0081
:020000040000fa
:020000040001f9
:045e300078ffff00f8
:020000040000fa
:020000040001f9
:045e38007df7ff00f3
:020000040000fa
:020000040001f9
:045e4000ff7fff00e1
:020000040000fa
:020000040001f9
:045e4800ffffff0059
:020000040000fa
:020000040001f9
:045e5000dfffff0071
:020000040000fa
:020000040001f9
:045e5800ffffff0049
:020000040000fa
:020000040001f9
:045e6000ffffff0041
:020000040000fa
:020000040001f9
:045e6800ffffff0039
:020000040000fa
:020000040001f9
:045e7000ffffff0031
:020000040000fa
:020000040001f9
:045e7800ffffff0029
:020000040000fa
:020000040001f9
:045e8000fffcff0024
:020000040000fa
:020000040001f9
:045e8800ffffff0019
:00000001FF
