:020000040000fa
:080000000002040000000000f2
:020000040000fa
:0400080050030000a1
:020000040000fa
:04000c00500300009d
:020000040000fa
:040010005003000099
:020000040000fa
:040014005003000095
:020000040000fa
:040018005003000091
:020000040000fa
:04001c00500300008d
:020000040000fa
:040020005003000089
:020000040000fa
:040024005003000085
:020000040000fa
:040028005003000081
:020000040000fa
:04002c00500300007d
:020000040000fa
:040030005003000079
:020000040000fa
:040034005003000075
:020000040000fa
:040038005003000071
:020000040000fa
:04003c00500300006d
:020000040000fa
:040040005003000069
:020000040000fa
:040044005003000065
:020000040000fa
:040048005003000061
:020000040000fa
:04004c00500300005d
:020000040000fa
:040050005003000059
:020000040000fa
:040054005003000055
:020000040000fa
:040058005003000051
:020000040000fa
:04005c00500300004d
:020000040000fa
:040060005003000049
:020000040000fa
:040064005003000045
:020000040000fa
:040068005003000041
:020000040000fa
:04006c00500300003d
:020000040000fa
:040070005003000039
:020000040000fa
:040074005003000035
:020000040000fa
:040078005003000031
:020000040000fa
:04007c00500300002d
:020000040000fa
:040080005003000029
:020000040000fa
:040084005003000025
:020000040000fa
:040088005003000021
:020000040000fa
:04008c00500300001d
:020000040000fa
:040090005003000019
:020000040000fa
:040094005003000015
:020000040000fa
:040098005003000011
:020000040000fa
:04009c00500300000d
:020000040000fa
:0400a0005003000009
:020000040000fa
:0400a4005003000005
:020000040000fa
:0400a8005003000001
:020000040000fa
:0400ac0050030000fd
:020000040000fa
:0400b00050030000f9
:020000040000fa
:0400b40050030000f5
:020000040000fa
:0400b80050030000f1
:020000040000fa
:0400bc0050030000ed
:020000040000fa
:0400c00050030000e9
:020000040000fa
:0400c40050030000e5
:020000040000fa
:0400c80050030000e1
:020000040000fa
:0400cc0050030000dd
:020000040000fa
:0400d00050030000d9
:020000040000fa
:0400d40050030000d5
:020000040000fa
:0400d80050030000d1
:020000040000fa
:0400dc0050030000cd
:020000040000fa
:0400e00050030000c9
:020000040000fa
:0400e40050030000c5
:020000040000fa
:0400e80050030000c1
:020000040000fa
:0400ec0050030000bd
:020000040000fa
:0400f00050030000b9
:020000040000fa
:0400f40050030000b5
:020000040000fa
:0400f80050030000b1
:020000040000fa
:0400fc0050030000ad
:020000040000fa
:0401000050030000a8
:020000040000fa
:0401040050030000a4
:020000040000fa
:0401080050030000a0
:020000040000fa
:04010c00500300009c
:020000040000fa
:040110005003000098
:020000040000fa
:040114005003000094
:020000040000fa
:040118005003000090
:020000040000fa
:04011c00500300008c
:020000040000fa
:040120005003000088
:020000040000fa
:040124005003000084
:020000040000fa
:040128005003000080
:020000040000fa
:04012c00500300007c
:020000040000fa
:040130005003000078
:020000040000fa
:04013400fa020000cb
:020000040000fa
:040138005003000070
:020000040000fa
:04013c00500300006c
:020000040000fa
:040140005003000068
:020000040000fa
:040144005003000064
:020000040000fa
:040148005003000060
:020000040000fa
:04014c00500300005c
:020000040000fa
:040150005003000058
:020000040000fa
:040154005003000054
:020000040000fa
:040158005003000050
:020000040000fa
:04015c00500300004c
:020000040000fa
:040160005003000048
:020000040000fa
:040164005003000044
:020000040000fa
:040168005003000040
:020000040000fa
:04016c00500300003c
:020000040000fa
:040170005003000038
:020000040000fa
:040174005003000034
:020000040000fa
:040178005003000030
:020000040000fa
:04017c00500300002c
:020000040000fa
:040180005003000028
:020000040000fa
:040184005003000024
:020000040000fa
:040188005003000020
:020000040000fa
:04018c00500300001c
:020000040000fa
:040190005003000018
:020000040000fa
:040194005003000014
:020000040000fa
:040198005003000010
:020000040000fa
:04019c00500300000c
:020000040000fa
:0401a0005003000008
:020000040000fa
:0401a4005003000004
:020000040000fa
:0401a8005003000000
:020000040000fa
:0401ac0050030000fc
:020000040000fa
:0401b00050030000f8
:020000040000fa
:0401b40050030000f4
:020000040000fa
:0401b80050030000f0
:020000040000fa
:0401bc0050030000ec
:020000040000fa
:0401c00050030000e8
:020000040000fa
:0401c40050030000e4
:020000040000fa
:0401c80050030000e0
:020000040000fa
:0401cc0050030000dc
:020000040000fa
:0401d00050030000d8
:020000040000fa
:0401d40050030000d4
:020000040000fa
:0401d80050030000d0
:020000040000fa
:0401dc0050030000cc
:020000040000fa
:0401e00050030000c8
:020000040000fa
:0401e40050030000c4
:020000040000fa
:0401e80050030000c0
:020000040000fa
:0401ec0050030000bc
:020000040000fa
:0401f00050030000b8
:020000040000fa
:0401f40050030000b4
:020000040000fa
:0401f80050030000b0
:020000040000fa
:0401fc0050030000ac
:020000040000fa
:0402000050030000a7
:020000040000fa
:0402040050030000a3
:020000040000fa
:04020800500300009f
:020000040000fa
:04020c00500300009b
:020000040000fa
:040210005003000097
:020000040000fa
:040214005003000093
:020000040000fa
:04021800500300008f
:020000040000fa
:04021c00500300008b
:020000040000fa
:040220005003000087
:020000040000fa
:040224005003000083
:020000040000fa
:04022800500300007f
:020000040000fa
:04022c00500300007b
:020000040000fa
:040230005003000077
:020000040000fa
:040234005003000073
:020000040000fa
:04023800500300006f
:020000040000fa
:04023c00500300006b
:020000040000fa
:040240005003000067
:020000040000fa
:040244005003000063
:020000040000fa
:04024800500300005f
:020000040000fa
:04024c00500300005b
:020000040000fa
:040250005003000057
:020000040000fa
:040254005003000053
:020000040000fa
:04025800500300004f
:020000040000fa
:04025c00500300004b
:020000040000fa
:040260005003000047
:020000040000fa
:040264005003000043
:020000040000fa
:04026800500300003f
:020000040000fa
:04026c00500300003b
:020000040000fa
:040270005003000037
:020000040000fa
:040274005003000033
:020000040000fa
:04027800500300002f
:020000040000fa
:04027c00500300002b
:020000040000fa
:040280005003000027
:020000040000fa
:040284005003000023
:020000040000fa
:04028800500300001f
:020000040000fa
:04028c00500300001b
:020000040000fa
:040290005003000017
:020000040000fa
:040294005003000013
:020000040000fa
:04029800500300000f
:020000040000fa
:04029c00500300000b
:020000040000fa
:0402a0005003000007
:020000040000fa
:0402a4005003000003
:020000040000fa
:0402a80050030000ff
:020000040000fa
:0402ac0050030000fb
:020000040000fa
:0402b00050030000f7
:020000040000fa
:0402b40050030000f3
:020000040000fa
:0402b80050030000ef
:020000040000fa
:0402bc0050030000eb
:020000040000fa
:0402c00050030000e7
:020000040000fa
:0402c40050030000e3
:020000040000fa
:0402c80050030000df
:020000040000fa
:0402cc0050030000db
:020000040000fa
:0402d00050030000d7
:020000040000fa
:0402d40050030000d3
:020000040000fa
:0402d80050030000cf
:020000040000fa
:0402dc0050030000cb
:020000040000fa
:0402e00050030000c7
:020000040000fa
:0402e40050030000c3
:020000040000fa
:0402e80050030000bf
:020000040000fa
:0402ec0050030000bb
:020000040000fa
:0402f00050030000b7
:020000040000fa
:0402f40050030000b3
:020000040000fa
:0402f80050030000af
:020000040000fa
:0402fc0050030000ab
:020000040000fa
:0403000050030000a6
:020000040000fa
:0403040050030000a2
:020000040000fa
:04030800500300009e
:020000040000fa
:04030c00500300009a
:020000040000fa
:040310005003000096
:020000040000fa
:040314005003000092
:020000040000fa
:04031800500300008e
:020000040000fa
:04031c00500300008a
:020000040000fa
:040320005003000086
:020000040000fa
:040324005003000082
:020000040000fa
:100400004f0021000eff22000e01880000000000b6
:10041000000020000000e000020032000001200087
:1004200020028800140007009f0007000000e00081
:1004300003003a0020752000010020000200370070
:100440000000200001002000810f70000100320038
:100450000f000700000020000000e0000200320052
:10046000000002000000000044070200000000003d
:100470000040da000000fe00802520000000e000bf
:1004800002003200002020009001880000000600d9
:10049000a1028800800478000000eb001f003700f4
:1004a000e284440054a0b4009905ba00e2844400f8
:1004b00054a0b4009906ba00e284440054a0b400e9
:1004c0000006eb00476fde00fd07b200ae018800ba
:1004d000636ce10003003a000ad801000000eb0061
:1004e0000e003700606ce10008003a00004deb00a0
:1004f0000a05e800020039003420ec000af0a000f0
:100500008b05e900f9ff3e00040037006168e10057
:10051000010032000086eb000b00070019c7ba008b
:100520001905ba000e04e00003003a000a00e000da
:10053000dbff3a0000000600fe07b200ae028800b2
:100540008a047800f5ff37000cd0a300e20f4d00bd
:100550001c00390089027800354dba000a05e80010
:10056000020039003420ec000af0a0008b05e900fd
:100570000f003200254dba000a05e80002003900dc
:100580003420ec000af0a0008b05e90008003200de
:100590000c00e0000600320015cdba000a05e800a4
:1005a000020039003420ec000af0a0008b05e900bd
:1005b0008984e80054a0b4000b00e000e2ff3a0098
:1005c000000006009902ba00055d78008b05e9007d
:1005d000f7ff3200c82ade00055d78008b05e900d0
:1005e000f3ff32000c00e000f1ff320019ddba0029
:1005f000eeff3700809fbe000000fa000080800000
:100600000000e8000080880000808000f30f5000a8
:100610001f0036000030ef0002d0bf000040e800ad
:1006200002f0b700210021009140780030c6b300ed
:1006300080cf5000010036000270ef0002d0bf00f2
:100640000080fb0080004000e04128000080400066
:1006500010007800201c880002d0bf000080fb0042
:1006600080004000604e28000080400010007800ac
:10067000d01d880002d0bf000080fb008000400039
:10068000603528000080400010007800701a880053
:100690000868a9000080fa004f00be000040060074
:0c06a0000040da000000fe000000050031
:020000040000fa
:1006ac00f4010000140200003302000053020000a9
:1006bc007102000090020000ae020000cb020000ac
:1006cc00e7020000020300001c03000035030000d9
:1006dc004d03000063030000780300008b0300004f
:1006ec009c030000ac030000ba030000c703000029
:1006fc00d1030000d9030000e0030000e403000074
:10070c00e7030000e7030000e6030000e20300003b
:10071c00dd030000d5030000cc030000c103000082
:10072c00b4030000a5030000940300008103000043
:10073c006d03000058030000410300002903000072
:10074c000f030000f5020000d9020000bc020000fb
:10075c009f020000810200006202000043020000c0
:10076c002302000004020000e4010000c5010000a7
:10077c00a50100008601000067010000490100008e
:10078c002c0100000f010000f3000000d900000054
:10079c00bf000000a7000000900000007b000000dc
:1007ac00670000005400000043000000340000000b
:1007bc00270000001c000000130000000b000000cc
:1007cc000600000002000000010000000100000013
:1007dc0004000000080000000f00000017000000db
:1007ec00210000002e0000003c0000004c00000026
:1007fc005d00000070000000850000009b00000000
:10080c00b3000000cc000000e60000000101000075
:10081c001d0100003a0100005801000077010000a2
:10082c0095010000b5010000d4010000f4010000a6
:10083c00a503000094030000810300006d03000079
:10084c005803000041030000290300000f030000bf
:10085c00f5020000d9020000bc0200009f0200005b
:10086c00810200006202000043020000230200002b
:10087c0004020000e4010000c5010000a501000015
:10088c008601000067010000490100002c010000f6
:10089c000f010000f3000000d9000000bf000000b1
:1008ac00a7000000900000007b0000006700000023
:1008bc00540000004300000034000000270000003a
:1008cc001c000000130000000b00000006000000dc
:1008dc000200000001000000010000000400000004
:1008ec00080000000f0000001700000021000000ad
:1008fc002e0000003c0000004c0000005d000000d9
:10090c0070000000850000009b000000b300000098
:10091c00cc000000e6000000010100001d010000f9
:10092c003a01000058010000770100009501000019
:10093c00b5010000d4010000f40100001402000015
:10094c00330200005302000071020000900200000c
:10095c00ae020000cb020000e70200000203000020
:10096c001c030000350300004d030000630300006e
:10097c00780300008b0300009c030000ac03000014
:10098c00ba030000c7030000d1030000d903000024
:10099c00e0030000e4030000e7030000e7030000ad
:1009ac00e6030000e2030000dd030000d5030000b5
:1009bc00cc030000c1030000b4030000a503000039
:1009cc004300000034000000270000001c00000061
:1009dc00130000000b0000000600000002000000e5
:1009ec0001000000010000000400000008000000ed
:1009fc000f00000017000000210000002e00000076
:100a0c003c0000004c0000005d0000007000000085
:100a1c00850000009b000000b3000000cc0000002b
:100a2c00e6000000010100001d0100003a01000079
:100a3c00580100007701000095010000b50100008d
:100a4c00d4010000f4010000140200003302000085
:100a5c00530200007102000090020000ae02000080
:100a6c00cb020000e7020000020300001c030000a0
:100a7c00350300004d030000630300007803000001
:100a8c008b0300009c030000ac030000ba030000c1
:100a9c00c7030000d1030000d9030000e0030000ed
:100aac00e4030000e7030000e7030000e603000096
:100abc00e2030000dd030000d5030000cc030000be
:100acc00c1030000b4030000a50300009403000060
:100adc00810300006d030000580300004103000077
:100aec00290300000f030000f5020000d9020000ea
:100afc00bc0200009f0200008102000062020000a4
:100b0c00430200002302000004020000e401000084
:100b1c00c5010000a501000086010000670100006e
:100b2c00490100002c0100000f010000f30000003f
:100b3c00d9000000bf000000a700000090000000da
:100b4c007b00000067000000540000004300000020
:020000040000fa
:100b5c000000fa0001188000c0ff2f000080600028
:100b6c000010a0000018880001188000f0fc2f0075
:100b7c00008060000040a00000188800703e20003b
:100b8c00501888000623ef0051198000f08f2f00b9
:100b9c000080600050198800011b8000f08f2f002e
:100bac0000806000001b8800b11c8000f08f2f00bb
:100bbc0000806000b01c88005119800070fe2f006e
:100bcc00008060000040a00050198800011b8000cc
:100bdc0070fe2f00008060000040a000001b880009
:100bec00b11c800070fe2f00008060000040a0004f
:100bfc00b01c88005119800080ff2f00008060001d
:100c0c0050198800011b800080ff2f0000806000bd
:100c1c00001b8800b11c800080ff2f00008060004a
:100c2c00b01c88002de3a90063e3a90099e3a90097
:100c3c002dc3a80063c3a80099c3a8002da3a800c6
:100c4c0063a3a80099a3a80091198000f0fc2f00c1
:100c5c000080600090198800411b8000f0fc2f0080
:100c6c0000806000401b8800f11c8000f0fc2f000d
:100c7c0000806000f01c880080072000d01a8800db
:100c8c0080072000801c880080072000301e880010
:100c9c0080072000e01a880080072000901c880044
:100cac0080072000401e88003263a8006863a800fb
:100cbc009e63a8003243a8006843a8009e43a80086
:100ccc003223a9006823a9009e23a9003203a8009f
:100cdc006803a8009e03a8006119800000ff2f0084
:100cec000080600060198800111b800000ff2f003d
:100cfc00008060000000a000101b8800c11c800058
:100d0c0000ff2f00008060000000a000c01c8800c5
:100d1c002d63a800a119800070fe2f0000806000d8
:100d2c000030a000a019880061198000f08f2f00fe
:100d3c000080600060198800111b8000f08f2f006c
:100d4c00008060000090a000101b8800c11c800077
:100d5c00f08f2f00008060000090a000c01c880065
:100d6c00b1198000f0cf2f0000806000b01988000e
:100d7c0001438000f0ff2800808060000000260006
:100d8c0001007000004388000868a9002868a800ca
:100d9c00401f2000201c8800401f2000d01d880010
:100dac00401f2000701a880061e3a80097e3a80098
:100dbc002be3a8000080fa00000006000000fa00f7
:100dcc00317c800000fc2f00008060000000a0003f
:100ddc00307c880001032000b0210a00880f00003d
:100dec00517c8000f0f82f00008060000040a000d3
:100dfc00507c8800517c800080ff2f0000806000b8
:100e0c000000a000507c88003200200080072000e9
:100e1c00a109200053f8200080497800814978000e
:100e2c0082497800207c8000000178000200a0003c
:100e3c00600420007105200043f8200080497800f0
:100e4c00814978008249780000000000207c8000f5
:100e5c00610060000000e000fcff3a0000000000b0
:100e6c00217c800000022000008060000000e00077
:100e7c00fbff32000080fa00000006000000fa00c0
:100e8c00ceff070032ff0700380ea9003a0ea9006a
:080e9c00c3e8a800ffff3700c6
:020000040000fa
:100ea400001000000200000080000000021000009a
:0c0eb400020000008000000000000000b0
:020000040000fa
:020000040001f9
:045e0000ffffff00a1
:020000040000fa
:020000040001f9
:045e2000ffffff0081
:020000040000fa
:020000040001f9
:045e300078ffff00f8
:020000040000fa
:020000040001f9
:045e38007df7ff00f3
:020000040000fa
:020000040001f9
:045e4000ff7fff00e1
:020000040000fa
:020000040001f9
:045e4800ffffff0059
:020000040000fa
:020000040001f9
:045e5000dfffff0071
:020000040000fa
:020000040001f9
:045e5800ffffff0049
:020000040000fa
:020000040001f9
:045e6000ffffff0041
:020000040000fa
:020000040001f9
:045e6800ffffff0039
:020000040000fa
:020000040001f9
:045e7000ffffff0031
:020000040000fa
:020000040001f9
:045e7800ffffff0029
:020000040000fa
:020000040001f9
:045e8000fffcff0024
:020000040000fa
:020000040001f9
:045e8800ffffff0019
:00000001FF
